:020000040800F2
:1000000000000120ED3300087503000877030008A5
:10001000790300087B0300087D030008000000004E
:100020000000000000000000000000006130000837
:100030007F0300080000000001310008EF2B0008DA
:100040003D3400083D3400083D3400083D340008CC
:100050003D3400083D3400083D3400083D340008BC
:100060003D3400083D3400083D3400083D340008AC
:100070003D3400083D3400083D3400083D3400089C
:100080003D3400083D3400083D3400083D3400088C
:100090003D3400083D3400083D3400083D3400087C
:1000A0003D340008810300083D3400083D34000859
:1000B0003D34000800000000000000003D3400084E
:1000C0003D3400083D3400083D3400083D3400084C
:1000D0003D3400083D3400083D3400083D3400083C
:1000E0003D3400083D34000800000000000000001E
:1000F0000000000000000000000000000000000000
:10010000000000003D340008000000003D340008FD
:1001100000000000000000003D3400083D340008ED
:100120003D3400083D3400083D3400083D340008EB
:100130003D34000800000000000000000000000046
:100140003D3400083D3400083D3400080000000044
:100150003D3400083D3400083D3400083D340008BB
:100160003D3400083D3400083D3400080000000024
:100170003D3400083D34000800000000000000008D
:100180003D3400083D3400083D3400080000000004
:100190000348044B834202D0034B03B11847704716
:1001A0001000002010000020000000000548064B51
:1001B0001B1AD90F01EBA301491002D0034B03B165
:1001C00018477047100000201000002000000000B9
:1001D00010B5064C237843B9FFF7DAFF044B13B18F
:1001E0000448AFF300800123237010BD10000020ED
:1001F00000000000B434000808B5054B1BB10549E8
:100200000548AFF30080BDE80840FFF7CFBF00BF4F
:100210000000000014000020B43400082DE9F0476D
:1002200088B00024039404940594069407944F4BDB
:10023000DA6C42F00402DA64DA6C02F00402009232
:10024000009ADA6C42F00102DA64DA6C02F0010220
:100250000192019ADA6C42F00202DA64DB6C03F07C
:1002600002030293029B22464FF401414FF090405B
:1002700000F0F2FF3E4D22463821284600F0ECFF08
:10028000062303930B230493059403A94FF0904096
:1002900000F0FEFEF0230393022704970594032643
:1002A00006964FF0050ACDF81CA003A94FF0904028
:1002B00000F0EEFE4FF4406303934FF01209CDF8C7
:1002C0001090059406964FF00408CDF81C8003A901
:1002D000284600F0DDFE4FF4704303930497059425
:1002E0000696CDF81CA003A9284600F0D1FE4FF4D5
:1002F000014303934FF0010ACDF810A00594069432
:1003000003A94FF0904000F0C3FE4FF4C063039385
:100310000497059406960723079303A94FF090408E
:1003200000F0B6FE4FF4C05303930494059403A960
:100330004FF0904000F0ACFE38230393CDF810A0AE
:100340000594069403A9284600F0A2FEC023039357
:10035000CDF8109005940696CDF81C8003A9284688
:1003600000F096FE08B0BDE8F08700BF0010024024
:1003700000040048FEE7FEE7FEE7FEE7FEE7704701
:1003800008B5024800F060F808BD00BF5C0000201E
:1003900000B583B00D4B1A6E42F001021A661A6E58
:1003A00002F001020092009A9A6D42F080529A6522
:1003B0009B6D03F080530193019B00220F216FF08E
:1003C000010000F0B9FF03B05DF804FB001002402B
:1003D0007047000090F83D30DBB2012B26D102239C
:1003E00080F83D300268D36843F00103D3600368AE
:1003F000114A93420CD0B3F1804F09D002F5A052BC
:10040000934205D01A6842F001021A60002070473A
:1004100099680A4A0A40062A0AD0B2F5803F09D0F4
:100420001A6842F001021A600020704701207047EC
:100430000020704700207047002C01400700010099
:10044000704770477047704770B504460368DE68B0
:100450001D6915F0020F10D016F0020F0DD06FF0CD
:1004600002021A610123037703689B6913F0030FEB
:1004700064D0FFF7E6FF0023237715F0040F12D0B6
:1004800016F0040F0FD023686FF004021A610223E4
:10049000237723689B6913F4407F55D02046FFF7EC
:1004A000D0FF0023237715F0080F12D016F0080FA5
:1004B0000FD023686FF008021A61042323772368A2
:1004C000DB6913F0030F46D02046FFF7BAFF002385
:1004D000237715F0100F12D016F0100F0FD02368ED
:1004E0006FF010021A61082323772368DB6913F485
:1004F000407F37D02046FFF7A4FF0023237715F075
:10050000010F02D016F0010F33D115F0800F02D089
:1005100016F0800F35D115F4807F02D016F0800FD1
:1005200037D115F0400F02D016F0400F39D115F039
:10053000200F02D016F0200F3BD170BDFFF780FFD7
:100540002046FFF77FFF96E72046FFF779FF20461A
:10055000FFF778FFA5E72046FFF772FF2046FFF779
:1005600071FFB4E72046FFF76BFF2046FFF76AFFF5
:10057000C3E723686FF001021A61204602F0D6FE3D
:10058000C3E723686FF080021A61204600F083F809
:10059000C1E723686FF480721A61204600F07CF88E
:1005A000BFE723686FF040021A612046FFF74BFF58
:1005B000BDE723686FF020021A61204600F06AF858
:1005C000BBE7000003681A4A904202D0B0F1804FA6
:1005D00003D123F070034A681343154A90420AD0AE
:1005E000B0F1804F07D002F5A052904203D002F53F
:1005F0008062904203D123F44073CA68134323F00E
:1006000080034A69134303608B68C3620B6883628B
:10061000074B984207D003F5A053984203D003F547
:100620008063984201D10B690363012343617047E2
:10063000002C014060B310B5044690F83D3013B370
:10064000022384F83D30214651F8040BFFF7BAFF2E
:10065000012384F8483084F83E3084F83F3084F831
:10066000403084F8413084F8423084F8433084F8D4
:10067000443084F8453084F8463084F8473084F8B4
:100680003D30002010BD80F83C30FFF7A1FED7E7D9
:100690000120704770477047704710B5032000F085
:1006A00039FE0F2000F0A6FF10B10124204610BD36
:1006B0000446FFF76DFEF9E7034B1B78034A116808
:1006C0000B441360704700BF000000202C00002086
:1006D000014B1868704700BF2C00002030B583B074
:1006E0000446204B9B6D13F0805F0BD000F0C2FDE1
:1006F000B0F5007F17D0802C1FD82DD0702C2DD0B6
:1007000000211BE0174DAB6D43F08053AB65AB6D23
:1007100003F080530193019B00F0ACFDAB6D23F01F
:100720008053AB65E4E7802C03D9A02C03D90221C8
:1007300004E0002102E0012100E003210A4A1368DD
:1007400023F007030B431360136803F007038B4286
:1007500006D1002003B030BD0221EFE70121EDE713
:100760000120F7E70010024000200240284A936869
:10077000D26802F0030213F00C030AD00C2B06D04F
:10078000042B1FD0082B20D00020024610E0012AA5
:10079000F6D11F4A126812F0080F0CD11C4AD2F889
:1007A0009420C2F303221B4951F8222043B10020B8
:1007B0000C2B0DD07047164A1268C2F30312F2E7F1
:1007C0001046F5E714480022F2E714480022EFE74C
:1007D0000F4BDB6803F00303022B16D0032B00D171
:1007E0000E4A0B49CB68C3F302130133C868C0F348
:1007F000062002FB00F0B0FBF3F0CB68C3F34163CB
:1008000001335B00B0FBF3F0D4E7034AE9E700BF34
:1008100000100240E83400080024F40000127A00BE
:10082000002800F01C83F0B583B00446964B9D6809
:1008300005F00C05DE6806F00306036813F0100FE0
:100840005AD0E5B10C2D18D0A369002B00F0BB8065
:100850008D4A136843F001031360FFF739FF074621
:10086000894B1B6813F0020F40F09A80FFF730FFAE
:10087000C01B0228F4D90320FCE2012EE4D1824BF4
:100880001B6813F0020F03D0A369002B00F0E9826C
:10089000206A7D4B1B6813F0080F5BD07A4B1B68F6
:1008A00003F0F00398425CD8774B1A6842F00802D4
:1008B0001A601A6822F0F002216A0A431A605A6824
:1008C00022F47F42E16942EA01225A60002D60D0A1
:1008D000FFF74CFF6C4B9B68C3F303136B4AD35C6D
:1008E00003F01F03D8406A4B18606A4B186800F089
:1008F00081FE002840F0BE82236813F0010F00F053
:100900008180082D75D00C2D71D06368B3F5803FC0
:1009100000F09780B3F5A02F00F099805A4B1A6829
:1009200022F480321A601A6822F480221A60636806
:10093000002B00F09980FFF7CBFE0746524B1B6857
:1009400013F4003F5ED1FFF7C3FEC01B6428F5D946
:1009500003208FE24C4BD3F894301B0903F0F003D3
:10096000A0E7FFF7BBFE002840F07D82464B1A68E7
:1009700042F008021A601A6822F0F002216A0A4363
:100980001A605A6822F47F42E16942EA01225A6001
:100990009EE7206AFFF7A2FE002899D0012069E2B5
:1009A000394B1A6842F008021A601A6822F0F00205
:1009B000216A0A431A605A6822F47F42E16942EAD6
:1009C00001225A6098E7304A136823F0010313604C
:1009D000FFF77EFE07462C4B1B6813F0020F8BD0EF
:1009E000FFF776FEC01B0228F5D9032042E2032E52
:1009F0008BD1254B1B6813F4003F03D06368002B99
:100A000000F03382236813F0020F58D0042D45D034
:100A10000C2D41D0E368002B77D01B4A136843F4B8
:100A200080731360FFF754FE0646174B1B6813F4E0
:100A3000806F61D1FFF74CFE801B0228F5D903209F
:100A400018E2114A136843F4803313606FE703F12F
:100A50008043A3F53C331A6842F480221A601A6876
:100A600042F480321A6062E7FFF732FE0746064B17
:100A70001B6813F4003FC5D0FFF72AFEC01B642893
:100A8000F5D90320F6E100BF00100240D034000881
:100A90000800002004000020022EBBD1A44B1B68DC
:100AA00013F4806F03D0E368002B00F0E081A04ACC
:100AB000536823F0F853216943EA016353602368C4
:100AC00013F0080F4CD063699BB3994AD2F8943065
:100AD00043F00103C2F89430FFF7FAFD0646944B49
:100AE000D3F8943013F0020F3AD1FFF7F1FD801BD9
:100AF0000228F4D90320BDE18D4A536823F0F8534E
:100B0000216943EA01635360D9E7894A136823F4F2
:100B100080731360FFF7DCFD0646854B1B6813F4FA
:100B2000806FCCD0FFF7D4FD801B0228F5D90320BD
:100B3000A0E17F4AD2F8943023F00103C2F8943048
:100B4000FFF7C6FD06467A4BD3F8943013F0020F38
:100B500006D0FFF7BDFD801B0228F4D9032089E1F0
:100B6000236813F0040F7AD0714B9B6D13F0805FF4
:100B700036D16F4B9A6D42F080529A659B6D03F0AF
:100B800080530193019B01266A4B1B6813F4807FFD
:100B900028D0A368012B39D0052B3FD0644BD3F864
:100BA000902022F00102C3F89020D3F8902022F088
:100BB0000402C3F89020A368002B3DD0FFF788FD06
:100BC00007465B4BD3F8903013F0020F46D1FFF786
:100BD0007FFDC01B41F288339842F2D9032049E1DE
:100BE0000026D1E7534A136843F480731360FFF77C
:100BF0006FFD07464F4B1B6813F4807FC9D1FFF789
:100C000067FDC01B0228F5D9032033E1484AD2F81A
:100C1000903043F00103C2F89030CCE7444BD3F856
:100C2000902042F00402C3F89020D3F8902042F0C4
:100C30000102C3F89020BEE7FFF74AFD07463C4B90
:100C4000D3F8903013F0020F08D0FFF741FDC01B1E
:100C500041F288339842F2D903200BE1E6B92368C8
:100C600013F0200F35D0636AE3B1314AD2F89830DF
:100C700043F00103C2F89830FFF72AFD06462C4BDB
:100C8000D3F8983013F0020F23D1FFF721FD801B1A
:100C90000228F4D90320EDE0254A936D23F0805318
:100CA0009365DCE7224AD2F8983023F00103C2F8BA
:100CB0009830FFF70DFD06461D4BD3F8983013F022
:100CC000020F06D0FFF704FD801B0228F4D9032091
:100CD000D0E0A36A002B00F0CC80022B17D00C2DA3
:100CE00000F0CC80124A136823F080731360FFF782
:100CF000EFFC04460E4B1B6813F0007F00F0A88049
:100D0000FFF7E6FC001B0228F4D90320B2E0084BF1
:100D1000DB6803F00301E26A91420DD00C2D00F074
:100D2000AB80034B1B6813F0806F2FD00120A1E034
:100D3000001002400070004003F07002216B013986
:100D4000B2EB011FEAD103F4FE42616BB2EB012F5B
:100D5000E4D103F07842A16BB2EBC16FDED103F4B2
:100D6000C001E26B5208013AB1EB425FD6D103F009
:100D7000C063226C5208013AB3EB426FCED1404BB4
:100D80001B6813F0007F49D0002073E03C4A1368D1
:100D900023F080731360FFF79BFC0546384B1B68FC
:100DA00013F0007F06D0FFF793FC401B0228F5D913
:100DB00003205FE0324AD36832491940E36A206B6E
:100DC000013843EA0013606B43EA0023E06B4008FC
:100DD000013843EA4053206C4008013843EA40633D
:100DE000A06B43EAC0631943D160136843F080737A
:100DF0001360D36843F08073D360FFF769FC044647
:100E00001F4B1B6813F0007F06D1FFF761FC001B2E
:100E10000228F5D903202DE000202BE0184B1A689A
:100E200042F080721A60DA6842F08072DA60FFF78E
:100E30004FFC0446124B1B6813F0007F06D1FFF7EE
:100E400047FC031B022BF5D9032013E0002011E01F
:100E50000B4AD1680C4B0B40D36000200AE0012004
:100E60007047012006E0012004E0012002E001209B
:100E700000E0002003B0F0BD0120FBE70120F9E70E
:100E8000001002408C809D01FCFFEEFE002800F067
:100E9000AF8070B50D460446594B1B6803F007033D
:100EA0008B420BD2564A136823F007030B4313609F
:100EB000136803F007038B4240F09C80236813F013
:100EC000020F0CD0A2684F4B9B6803F0F0039A42CC
:100ED00005D94C498B6823F0F0031A438A602368D4
:100EE00013F0010F39D06368032B09D0022B26D0F1
:100EF00063BB444A126812F0020F06D1012076E06B
:100F0000404A126812F0007F76D03E498A6822F08B
:100F1000030213438B60FFF7DBFB0646394B9B68EC
:100F200003F00C036268B3EB820F16D0FFF7D0FB1F
:100F3000801B41F288339842F0D9032057E0314AB0
:100F4000126812F4003FE0D1012050E02D4A1268EF
:100F500012F4806FD9D1012049E0236813F0020F09
:100F60000CD0A268274B9B6803F0F0039A4205D28D
:100F700024498B6823F0F0031A438A60204B1B68D6
:100F800003F00703AB420AD91D4A136823F0070395
:100F90002B431360136803F00703AB422ED1236881
:100FA00013F0040F06D0174A936823F4E063E16856
:100FB0000B439360236813F0080F07D0114A93681E
:100FC00023F46053216943EAC1039360FFF7CEFB2A
:100FD0000C4B9B68C3F303130B4AD35C03F01F0352
:100FE000D8400A4B18600A4B186800F003FB70BD2C
:100FF000012070470120FAE70120F8E70120F6E719
:101000000020024000100240D034000808000020F8
:1010100004000020014B1868704700BF0800002042
:1010200008B5FFF7F7FF054B9B68C3F3C223044ADB
:10103000D35C03F01F03D84008BD00BF001002407E
:10104000E03400080F2303600B4B9A6802F00302A0
:1010500042609A6802F0F00282609A6802F4E062EC
:10106000C2609B68DB0803F4E0630361034B1B6809
:1010700003F007030B60704700100240002002409D
:10108000024A136843F004031360704700100240E3
:10109000F0B583B0002362E085685E000324B440AD
:1010A00025EA0405CC68B4402C438460456825EAF1
:1010B0000C054C68C4F300149C402C4344605FE072
:1010C000DD08083550F8254003F0070C4FEA8C0C7A
:1010D0004FF00F0E0EFA0CFE24EA0E0E0C6904FA05
:1010E0000CF444EA0E0440F8254060E0042400E0DB
:1010F000002404FA0EF42C430CF1020C524D45F876
:101100002C40524CA568D44325EA02064F6817F4D8
:10111000801F01D042EA05064C4DAE60ED6804EA3E
:1011200005064F6817F4001F01D042EA0506474D37
:10113000EE606D6804EA05064F6817F4003F01D0C1
:1011400042EA0506414D6E602D682C404E6816F44B
:10115000803F01D042EA05043C4A146001330A682A
:1011600032FA03F46ED04FF0010C0CFA03FC1CEAC7
:101170000202F3D04C6804F00304013C012C8BD92B
:101180004C6804F00304032C0CD0C4685D004FF0DD
:10119000030C0CFA05FC24EA0C0C8C68AC4044EA05
:1011A0000C04C4604C6804F00304022C88D004686A
:1011B0004FEA430E4FF0030C0CFA0EFC24EA0C0C21
:1011C0004C6804F0030404FA0EF444EA0C040460CE
:1011D0004C6814F4403FC1D01D4C256E45F001050C
:1011E0002566246E04F001040194019C4FEA930CDF
:1011F0000CF10205144C54F8255003F0030E4FEA8D
:101200008E0E0F2404FA0EF425EA0405B0F1904F77
:101210003FF46EAF0F4CA0420ED004F58064A042A4
:101220000CD004F58064A0420AD004F58064A0428A
:101230003FF45CAF07245CE701245AE7022458E737
:10124000032456E703B0F0BD000001400004014054
:1012500000100240000400480AB1816170478162B9
:1012600070470000024A136843F4807313607047AC
:1012700000700040024B186800F4C060704700BF67
:1012800000700040B0F5007F0FD01F4B1B6803F4C7
:10129000C063B3F5806F34D01B4A136823F4C06376
:1012A00043F48063136000207047174B1B6803F4FE
:1012B000C063B3F5007F20D0134A136823F4C063E2
:1012C00043F400731360114B1B68322202FB03F3DB
:1012D0000F4AA2FB03239B0C013300E0013B0A4AA7
:1012E000526912F4806F01D0002BF7D1064B5B6975
:1012F00013F4806F03D10020704700207047032053
:1013000070470020704700BF0070004008000020B8
:1013100083DE1B43074AD36823F4E0631B041B0CE2
:10132000000200F4E060034343F0BF6343F4003382
:10133000D360704700ED00E000B5194BDB68C3F3E4
:101340000223C3F1070CBCF1040F28BF4FF0040CBB
:1013500003F1040EBEF1060F18D9033B4FF0FF3E18
:101360000EFA0CFC21EA0C0199400EFA03FE22EA67
:101370000E020A4300280BDB1201D2B200F16040DA
:1013800000F5614080F800235DF804FB0023E5E7E9
:1013900000F00F001201D2B2024B1A54F4E700BF62
:1013A00000ED00E014ED00E0002807DB00F01F0274
:1013B000400901239340024A42F82030704700BFA1
:1013C00000E100E0034AD2F8883043F47003C2F829
:1013D0008830704700ED00E008B50B480B4B036008
:1013E0001023436000238360C3600361436103767D
:1013F00043768376C3760377437700F03FF800B9EE
:1014000008BD01F09FFFFBE73000002000640040B2
:1014100000B589B0002303930493059306930793C3
:101420000268144B9A4202D009B05DF804FB03F540
:10143000D6339A6D42F000729A659A6D02F000728E
:101440000192019ADA6C42F00202DA64DB6C03F07A
:1014500002030293029B4FF440730393022304930D
:10146000032306930923079303A90348FFF710FEFC
:10147000DAE700BF0064004000040048002800F0E4
:10148000A18038B5044690F82030D3B122681368A3
:1014900043F001031360FFF71BF9054623685A6800
:1014A00012F0010F10D1FFF713F9401B0A28F5D9EC
:1014B000636A43F400336362052384F8203001201B
:1014C00038BDFFF7A5FFE1E71A6822F002021A60B3
:1014D000FFF7FEF8054623685A6812F0020F0DD098
:1014E000FFF7F6F8401B0A28F5D9636A43F4003386
:1014F0006362052384F820300120E1E7227E012A7F
:101500003DD01A6822F080021A60637E012B3BD026
:101510002268136823F040031360A37E012B39D0A7
:101520002268136823F020031360E37E012B37D079
:101530002268136843F010031360237F012B35D01A
:101540002268136823F008031360637F012B33D0F4
:101550002268136823F004031360A368E26813434E
:1015600022691343626913436268013A2168134395
:10157000CB6100206062012384F82030A0E71A6864
:1015800042F080021A60C0E72268136843F040030B
:101590001360C2E72268136843F020031360C4E7B6
:1015A0002268136823F010031360C6E722681368EB
:1015B00043F008031360C8E72268136843F004038C
:1015C0001360CAE70120704708B5012001F0A8FBAD
:1015D000FBE7000008B5044A0021044801F042FB83
:1015E000034B186008BD00BF24350008C91500086A
:1015F0005800002030B589B004461E4B1A6E42F4E4
:1016000000621A661B6E03F400630193019B02A93A
:1016100003A8FFF717FDFFF703FD174AA2FB0023FE
:101620009B0C013B1548164A026040F2E732C2604B
:1016300043600023036183608361FEF7FBFF05467F
:1016400010B1284609B030BD0C48FEF7C3FE054670
:101650000028F6D11920FFF7A7FE0F2C01D901258C
:10166000EFE7002221461920FFF766FE054B1C60BC
:10167000E7E700BF0010024083DE1B435C00002050
:10168000002C01400400002000F1080343604FF0EB
:10169000FF328260C3600361002303607047002350
:1016A0000361704743684B609A688A605160996033
:1016B0000861036801330360704730B40D68B5F109
:1016C000FF3F11D000F108031C465B681A68AA426C
:1016D000FAD963684B6099608C6061600861036847
:1016E0000133036030BC70470469F2E70369416865
:1016F00082688A60416851605A68824206D000223E
:1017000002611A68013A1A601868704782685A6064
:10171000F5E710B5044601F0B5FCA26BE36B9A4205
:1017200004D0002401F0D0FC204610BD0124F9E7CC
:1017300010B5044601F0A6FCA36B23B9012401F007
:10174000C3FC204610BD0024F9E770B504461546D9
:10175000866B026C5AB903681BB100200136A66380
:1017600070BD806800F0D2FF0023A360F6E76DB97A
:10177000406801F089FE226C636813446360A268CC
:10178000934219D3236863602846E7E7C06801F0F5
:101790007BFE226C5142E3689B1AE360226893420D
:1017A00002D2A3680B44E360022D01D00020D5E7EC
:1017B00026B1013E0020D1E72846CFE70020CDE743
:1017C0000346026C6AB110B50846D9681144D96065
:1017D0009C68A14201D31968D960D96801F054FE10
:1017E00010BD704738B5054601F04CFC95F84540F2
:1017F00064B201E0013C64B2002C0ADD6B6A43B1C3
:1018000005F1240000F0D8FE0028F3D000F068FFB6
:10181000F0E7FF2385F8453001F056FC01F032FC7B
:1018200095F8444064B201E0013C64B2002C0ADD4A
:101830002B6943B105F1100000F0BEFE0028F3D083
:1018400000F04EFFF0E7FF2385F8443001F03CFC48
:1018500038BD38B5E0B10D46044601F013FC2368ED
:10186000E26B216C01FB0230A0600020A06363608A
:10187000013A02FB0133E360FF2384F8443084F82B
:101880004530FDB9236963B901F01EFC012038BD64
:101890004FF0500383F31188BFF36F8FBFF34F8F67
:1018A000FEE704F1100000F087FE0028ECD04FF0B6
:1018B000E0234FF08052C3F8042DBFF34F8FBFF3E6
:1018C0006F8FE1E704F11000FFF7DEFE04F1240062
:1018D000FFF7DAFED8E738B51D46049C0B4649B938
:1018E0002460E063236401212046FFF7B2FF84F8FF
:1018F0004C5038BD2260F4E740B94FF0500383F3F9
:101900001188BFF36F8FBFF34F8FFEE710B584B020
:101910001C46844653B192B189B94FF0500383F30A
:101920001188BFF36F8FBFF34F8FFEE74FF0500367
:1019300083F31188BFF36F8FBFF34F8FFEE76AB158
:1019400050230393039B502B13D04FF0500383F38A
:101950001188BFF36F8FBFF34F8FFEE70029EFD0E1
:101960004FF0500383F31188BFF36F8FBFF34F8F96
:10197000FEE7039B012384F8463000949DF818305D
:101980006046FFF7A8FF204604B010BDF0B585B053
:10199000019288B10F461D460446B1B1022D20D1F7
:1019A000E36B012B1DD04FF0500383F31188BFF37D
:1019B0006F8FBFF34F8FFEE74FF0500383F3118813
:1019C000BFF36F8FBFF34F8FFEE7036C002BE5D0A3
:1019D0004FF0500383F31188BFF36F8FBFF34F8F26
:1019E000FEE700F083FE064658B9019B002B48D065
:1019F0004FF0500383F31188BFF36F8FBFF34F8F06
:101A0000FEE700263DE02A4639462046FFF79DFEC8
:101A1000636A7BB948B14FF0E0234FF08052C3F8BE
:101A2000042DBFF34F8FBFF36F8F01F04DFB0120EB
:101A300005B0F0BD04F1240000F0BEFD0028F4D094
:101A40004FF0E0234FF08052C3F8042DBFF34F8FC7
:101A5000BFF36F8FE9E701F037FB0020E8E702A84A
:101A600000F0F0FD012619E0002384F8443021E065
:101A7000002384F8453023E02046FFF7B3FE00F052
:101A80007BFC01F0FFFAA26BE36B9A42BBD3022D01
:101A9000B9D0019B002BDED0002EE0D001F014FB6A
:101AA00000F0D0FB01F0EEFA94F8442052B2B2F10B
:101AB000FF3FD9D094F8452052B2B2F1FF3FD7D0C2
:101AC00001F002FB01A902A800F0C8FDD8B9204628
:101AD000FFF71FFE0028CFD0019904F1100000F09D
:101AE00037FD2046FFF77EFE00F046FC0028C8D1F7
:101AF0004FF0E0234FF08052C3F8042DBFF34F8F17
:101B0000BFF36F8FBDE72046FFF76CFE00F034FC9B
:101B100000208DE72DE9F84390B10F4616461C468C
:101B20000546B1B1022C20D1EB6B012B1DD04FF03B
:101B3000500383F31188BFF36F8FBFF34F8FFEE71E
:101B40004FF0500383F31188BFF36F8FBFF34F8FB4
:101B5000FEE7036C002BE5D04FF0500383F31188B0
:101B6000BFF36F8FBFF34F8FFEE701F0B1FBEFF3D1
:101B700011884FF0500383F31188BFF36F8FBFF3C9
:101B80004F8FAA6BEB6B9A4206D3022C04D0002035
:101B900088F31188BDE8F88395F845904FFA89F9E4
:101BA000AB6B224639462846FFF7CFFDB9F1FF3F20
:101BB00006D009F101035BB285F845300120E7E763
:101BC0006B6A0BB90120E3E705F1240000F0F4FC97
:101BD00018B126B101203060DAE70120D8E70120F2
:101BE000D6E7F0B585B0019290B10F460446C1B179
:101BF00000F07CFD064600BB019B002B5ED04FF041
:101C0000500383F31188BFF36F8FBFF34F8FFEE74D
:101C10004FF0500383F31188BFF36F8FBFF34F8FE3
:101C2000FEE7036C002BE3D04FF0500383F31188E1
:101C3000BFF36F8FBFF34F8FFEE700263EE03946BC
:101C40002046FFF7BDFD013DA563236923B901F0DF
:101C50003BFA012005B0F0BD04F1100000F0ACFC2F
:101C60000028F4D04FF0E0234FF08052C3F8042D49
:101C7000BFF34F8FBFF36F8FE9E701F025FA002024
:101C8000E8E702A800F0DEFC012621E0002384F84A
:101C9000443029E0002384F845302BE02046FFF74C
:101CA000A1FD00F069FB09E02046FFF79BFD00F075
:101CB00063FB2046FFF73CFD00283FD101F0E2F92D
:101CC000A56B002DBBD1019B002BD6D0002ED8D008
:101CD00001F0FAF900F0B6FA01F0D4F994F84430C2
:101CE0005BB2B3F1FF3FD1D094F845305BB2B3F1B2
:101CF000FF3FCFD001F0E8F901A902A800F0AEFC47
:101D00000028D1D12046FFF713FD0028C6D0019945
:101D100004F1240000F01CFC2046FFF763FD00F0F6
:101D20002BFB0028CAD14FF0E0234FF08052C3F8BC
:101D3000042DBFF34F8FBFF36F8FBFE7002089E7FC
:101D40000023072B0CD8074A52F833200AB101337D
:101D5000F7E7044A42F8331002EBC30250607047C1
:101D6000704700BFA800002070B504460D46164617
:101D700001F088F994F844305BB2B3F1FF3F0DD025
:101D800094F845305BB2B3F1FF3F0BD001F09CF902
:101D9000A36B5BB12046FFF725FD70BD002384F8DF
:101DA0004430EDE7002384F84530EFE7324629461A
:101DB00004F1240000F0E4FBECE70000084B1B6892
:101DC0001B6823B9074B4FF0FF321A607047044B72
:101DD0001B68DB68DB685A68024B1A60704700BFFB
:101DE000EC000020940500202DE9F04780460D46C8
:101DF00017469946089EDDF824A00A9C9200A5216A
:101E0000206B01F04FFB236B07F18042013A03EB9B
:101E1000820727F00707A5B34FF0000CBCF10F0FA6
:101E200009D815F80C3004EB0C0282F8343013B1E9
:101E30000CF1010CF2E7002384F84330372E00D96F
:101E40003726E662E66400252565201DFFF727FC9E
:101E500004F11800FFF723FC2461C6F13806A661DF
:101E60006462656584F858504A464146384601F038
:101E7000DDF82060BAF1000F01D0CAF80040BDE8DB
:101E8000F087002384F83430D8E7000038B5002408
:101E900007E004EB840293000E481844FFF7F4FBBC
:101EA0000134372CF5D90C4D2846FFF7EDFB0B4CD0
:101EB0002046FFF7E9FB0A48FFF7E6FB0948FFF772
:101EC000E3FB0948FFF7E0FB084B1D60084B1C6073
:101ED00038BD00BFF4000020680500207C0500200C
:101EE000A0050020CC050020B8050020EC00002053
:101EF000F000002010B5044601F0C4F8224A13682F
:101F000001331360214B1B685BB1214B1B686BB91C
:101F10001E4B1B68DA6AE36A9A4207D81B4B1C60A7
:101F200004E01A4B1C601368012B29D0194A13686E
:101F3000013313606364E06A174B1B68984201D950
:101F4000154B186000EB8000211D144B03EB800043
:101F5000FFF7A8FB01F0B8F80D4B1B687BB10B4BEA
:101F60001B68DA6AE36A9A4209D24FF0E0234FF025
:101F70008052C3F8042DBFF34F8FBFF36F8F10BD96
:101F8000FFF784FFD2E700BF54050020E8000020DF
:101F9000B40500206005002064050020F400002046
:101FA00010B5044690F8593063B1012B11D0022BC3
:101FB0000ED04FF0500383F31188BFF36F8FBFF340
:101FC0004F8FFEE7006B00F0B5FF204600F0B2FF38
:101FD00010BD00F0AFFFFBE70F4B1B68D3B110B58E
:101FE00001F050F80D4BDB68DC68201DFFF77EFB2D
:101FF0000B4A1368013B1360074A1368013B1360E7
:1020000001F062F82046FFF7CBFF034B1B68002B63
:10201000E6D110BD704700BF58050020CC05002058
:102020005405002008B5FFF7D7FF074B1B68012BAD
:10203000F9D94FF0E0234FF08052C3F8042DBFF3DD
:102040004F8FBFF36F8FEEE7F400002070B50446AA
:102050000D46174B1E68174B18680430FFF746FBF8
:10206000B4F1FF3F0DD03444124B1B685C60A642B4
:1020700010D9114B18680F4B19680431FFF71DFB7D
:1020800070BD002DEFD00B4B196804310B48FFF7E2
:1020900009FBF5E70A4B1868064B19680431FFF78E
:1020A0000CFB084B1B68A342EAD9064B1C60E7E710
:1020B000E0050020E8000020F0000020B805002026
:1020C000EC0000209405002030B587B00B9C7CB15B
:1020D0000C9DB5B15C250495049D5C2D1AD04FF084
:1020E000500383F31188BFF36F8FBFF34F8FFEE769
:1020F0004FF0500383F31188BFF36F8FBFF34F8FFF
:10210000FEE74FF0500383F31188BFF36F8FBFF3E7
:102110004F8FFEE7049D0C9D2C63022485F85940E7
:1021200000240394029505AC01940A9C0094FFF7E7
:102130005BFE0C98FFF7DEFE059807B030BD2DE979
:10214000F04385B00746884614461E46900000F0CE
:1021500073FE00B381465C2000F06EFE0546B0B110
:10216000C0F83090E5B1002385F85930039302950B
:102170000D9B01930C9B0093334622464146384603
:10218000FFF732FE2846FFF7B5FE012005E048467E
:1021900000F0D0FEE6E74FF0FF3005B0BDE8F08379
:1021A0004FF0FF30F9E7000010B588B00024059427
:1021B000069407AA06A905A800F0C0FD059B029396
:1021C000069B019300942346079A18491848FFF785
:1021D0007BFF184B186040B100F04CFB012806D083
:1021E000B0F1FF3F18D008B010BD0020F6E74FF067
:1021F000500383F31188BFF36F8FBFF34F8F0E4BE4
:102200004FF0FF321A600D4B01221A600C4B002276
:102210001A6000F0D1FFE6E74FF0500383F3118816
:10222000BFF36F8FBFF34F8FFEE700BF4835000845
:10223000252000089005002094050020B40500200A
:10224000E0050020024A136801331360704700BFA5
:102250005C050020014B1868704700BFE0050020B6
:10226000F8B53A4B1B68002B69D1394B1D68013515
:102270001D60C5B9374B1B681B6843B14FF0500355
:1022800083F31188BFF36F8FBFF34F8FFEE7314A9F
:102290001168314B186810601960304A13680133B7
:1022A0001360FFF78BFD2E4B1B68AB423DD9002717
:1022B0002C4B1B68DB6A03EB83039A002A4B9B5869
:1022C000012B00D90127294B1B68002B3CD001278B
:1022D0003AE001271F4B1B681B6843B31D4B1B686B
:1022E000DB68DC6863689D4226D3261D3046FFF715
:1022F000FDF9A36A1BB104F11800FFF7F7F9E36ACF
:102300001B4A1268934201D9194A136003EB8303F5
:102310009A00314614481044FFF7C4F9E26A114BA1
:102320001B68DB6A9A42D4D2D4E70027D2E70C4B71
:102330004FF0FF321A60BBE7094A1360B8E70D4A55
:1023400013680133136000273846F8BD5C05002090
:10235000E0050020EC000020F0000020980500209F
:1023600094050020E8000020F4000020E40500208F
:10237000640500209C05002038B5354B1B6843B927
:102380004FF0500383F31188BFF36F8FBFF34F8F6C
:10239000FEE700F077FE2E4B1A68013A1A601B68C0
:1023A000002B4FD12B4B1B680BB900244BE00024B2
:1023B000294B1B681BB3284BDB68DC6804F1180051
:1023C000FFF794F9251D2846FFF790F9E06A234BA3
:1023D0001B68984201D9214B186000EB8000294608
:1023E0001F4B03EB8000FFF75DF9E26A1D4B1B6892
:1023F000DB6A9A42DCD31C4B01221A60D8E70CB18D
:10240000FFF7DCFC194B1C6884B9174B1C68D4B16E
:102410004FF0E0234FF08052C3F8042DBFF34F8FED
:10242000BFF36F8F01240EE0013C07D0FFF718FFC8
:102430000028F9D00C4B01221A60F5E70B4B002263
:102440001A60E2E7002400F03FFE204638BD00BFDE
:102450005C05002054050020A00500206405002034
:10246000F4000020E8000020E40500209C05002086
:1024700010B5A8B10446104B1B6843B14FF0500390
:1024800083F31188BFF36F8FBFF34F8FFEE7FFF722
:10249000D9FE00212046FFF7D9FDFFF76DFF48B9AF
:1024A0004FF0E0234FF08052C3F8042DBFF34F8F5D
:1024B000BFF36F8F10BD00BF5C0500201F4B1B6872
:1024C0001BB11F4B01221A6070471D4B00221A607E
:1024D0001C4B1B6803EB83018A001B498A585AB9BD
:1024E0000BB1013BF6E74FF0500383F31188BFF3C4
:1024F0006F8FBFF34F8FFEE703EB830082000A4428
:1025000050684068506003EB830C4FEA8C0208323D
:10251000114488420BD003EB830291000A4A0A441B
:102520005268D168094A1160064A136070474068D2
:1025300062469100044A0A445060ECE75C050020C2
:10254000E405002064050020F4000020E8000020DD
:1025500058B110B50C46094A11681831FFF7ADF8AB
:1025600001212046FFF772FD10BD4FF0500383F3A9
:102570001188BFF36F8FBFF34F8FFEE7E800002095
:1025800038B570B10D4614460A4A11681831FFF784
:1025900089F80CB14FF0FF3521462846FFF756FD6C
:1025A00038BD4FF0500383F31188BFF36F8FBFF333
:1025B0004F8FFEE7E800002038B5C368DC6824B31D
:1025C00004F118052846FFF791F8184B1B682BBB40
:1025D000251D2846FFF78AF8E06A154B1B689842CC
:1025E00001D9134B186000EB80002946114B03EB17
:1025F0008000FFF757F8E26A0F4B1B68DB6A9A42CC
:1026000011D901200D4B186038BD4FF0500383F3F2
:102610001188BFF36F8FBFF34F8FFEE7294608483D
:10262000FFF740F8E7E70020EEE700BF5C05002079
:1026300064050020F4000020E8000020E4050020EC
:10264000A0050020034B1B680360034B1B6843601D
:10265000704700BF98050020E0050020F8B5C8B11C
:102660000C460546F9B100F00DFD1B4B19686B686F
:10267000C81A2268B2F1FF3F26D0184E36682F687C
:10268000B74201D08B4224D9824215D8002323605F
:1026900001241AE04FF0500383F31188BFF36F8FCA
:1026A000BFF34F8FFEE74FF0500383F31188BFF362
:1026B0006F8FBFF34F8FFEE75B1A134423602846EA
:1026C000FFF7C0FF002400E0002400F0FDFC2046DE
:1026D000F8BD0124F9E700BFE005002098050020BF
:1026E000014B01221A607047E4050020054B1B686E
:1026F00033B1054B1B680BB10020704702207047B7
:1027000001207047B40500205C05002000283BD064
:1027100038B504461E4B1B68834208D04FF0500367
:1027200083F31188BFF36F8FBFF34F8FFEE7036D05
:1027300043B94FF0500383F31188BFF36F8FBFF39A
:102740004F8FFEE7013B0365C16AC26C91421DD009
:102750000BB1002038BD051D2846FEF7C7FFE06C11
:10276000E062C0F13803A3610A4B1B68984201D9AB
:10277000084B186000EB80002946074B03EB8000F4
:10278000FEF790FF0120E5E7002070470020E1E719
:10279000E800002064050020F4000020064B1A68C1
:1027A00013682BB90123036023B9D36818687047F5
:1027B0000023F8E700207047E805002008B54160D5
:1027C000006191420CD8D21A83699A4201D3012048
:1027D00008BD011D094B1868FEF76FFF0020F7E7E1
:1027E0009A4201D2994206D2011D054B1868FEF7A4
:1027F00064FF0020ECE70120EAE700BFEC050020C1
:10280000E805002030B583B000F03CFC114B1B689C
:102810001BB100F059FC03B030BD0F4D2846FEF748
:1028200033FF0E4C2046FEF72FFF0D4B1D600D4B66
:102830001C60002300930C4B0C4A10210A20FFF768
:102840005BF8044B18600028E3D00949FFF778FAD9
:10285000DFE700BF0C07002090060020A406002040
:10286000E8050020EC050020BC060020F005002053
:102870005035000810B588B0FFF7C4FF124B1B6835
:10288000CBB100240594069407AA06A905A800F078
:1028900061FA059B0293069B019302230093234652
:1028A000079A0A490A48FFF70FFC0A4B186010B153
:1028B000012008B010BD4FF0500383F31188BFF31F
:1028C0006F8FBFF34F8FFEE70C07002058350008CD
:1028D000D92B000810070020B8B19C4603461848C1
:1028E000006858B300B585B00091019202930529A4
:1028F0001CDCFFF7FBFE022810D000231A466946B5
:102900000F480068FFF742F815E04FF0500383F3DB
:102910001188BFF36F8FBFF34F8FFEE70023069A36
:10292000694607480068FFF731F804E00023624673
:102930006946FFF7EFF805B05DF804FB002070472B
:102940000C07002070B582B01B4B1B681A6862B37D
:10295000DB681E68DC68251D2846FEF7C7FE236A73
:102960002046984794F8283013F0040FECD0A36960
:1029700033449E4207D26360246129460E4B186897
:10298000FEF79BFEE0E7002100910B463246204611
:10299000FFF7A2FF0028D7D14FF0500383F311882F
:1029A000BFF36F8FBFF34F8FFEE7044A10680249F1
:1029B0000860136002B070BDE8050020EC0500203F
:1029C00038B50546FFF746FC0446074B1B688342B3
:1029D00005D800232B60044B1C60204638BDFFF750
:1029E000B1FF01232B60F6E7B806002070B582B076
:1029F00006460D4617490968C968CC68201DFEF7D0
:102A000075FE94F828C01CF0040F08D12CF0010CBE
:102A100084F828C0236A2046984702B070BDA16997
:102A200033462A4631442046FFF7C8FE0028F1D03D
:102A3000002100910B4632462046FFF74DFF00284B
:102A4000E8D14FF0500383F31188BFF36F8FBFF3CA
:102A50004F8FFEE7E805002070B582B006460C46B1
:102A6000FFF7F0FB01A8FFF7ABFF019B33BB054667
:102A70000CB9B04219D224B1124A12681268DAB9FC
:102A800001242246711B104B1868FFF76DF9FFF700
:102A900073FCA8B94FF0E0234FF08052C3F8042D27
:102AA000BFF34F8FBFF36F8F0AE0FFF765FC294636
:102AB0003046FFF79BFF03E01C46E2E7FFF75CFCB4
:102AC00002B070BDEC0500200C07002010B588B0E6
:102AD00002E0049B002B0FDA002204A93D4B18688A
:102AE000FFF77FF8002873D0049B002BF1DA0799D9
:102AF0000698059B9847ECE7069C636913B1201D77
:102B0000FEF7F4FD03A8FFF75BFF049B092BE3D856
:102B1000DFE803F00505053037500505303794F838
:102B2000283043F0010384F82830059BA169024650
:102B300019442046FFF742FE0028CDD0236A2046E4
:102B4000984794F8283013F0040FC5D0A2690021EB
:102B500000910B46059802442046FFF7BDFE002871
:102B6000BAD14FF0500383F31188BFF36F8FBFF3D7
:102B70004F8FFEE794F8283023F0010384F82830C3
:102B8000AAE794F8283043F0010384F82830059927
:102B9000A16131B10346024601442046FFF70EFE13
:102BA0009AE74FF0500383F31188BFF36F8FBFF3A1
:102BB0004F8FFEE794F8283013F0020F04D023F073
:102BC000010384F8283087E7204600F0B3F983E753
:102BD00008B010BD0C07002000B583B001A8FFF7B6
:102BE000DDFD0199FFF738FFFFF770FFF6E708B545
:102BF0004FF0E0231B69FFF779FD012800D108BDE4
:102C000000F0B0FAFBE70000EFF305832BB9064BA9
:102C1000186828B901221A6070476FF005007047E4
:102C20004FF0FF30704700BF70090020EFF30583BD
:102C300073B90A4B1B68012B0DD110B50024084B4A
:102C4000DC77064B02221A60FFF7AEFA204610BD71
:102C50006FF0050070474FF0FF307047700900209B
:102C600000ED00E0F0B587B000240594EFF3058493
:102C700074BB68B322B31568936903B918235C1E4B
:102C8000372C49D8546814F0010F47D156696EB1FA
:102C90004FEA960C94682CB1D7685B2F02D917695C
:102CA00007B1C6B92CB14FF0FF340EE04FF0800CE5
:102CB000F0E7D4688CB9146994B14FF0FF3404E0A4
:102CC0001546002418234FF0800C012C0AD0ACB11B
:102CD000059807B0F0BD0124F7E74FF0FF34F4E7A3
:102CE0000024F2E7146992680292019400930B4663
:102CF00062462946FFF7E8F90590E9E705AA01923F
:102D000000930B461FFA8CF22946FFF718FA0128A8
:102D1000DED000230593DBE70020DAE70020D8E7C8
:102D200008B5EFF3058333B908B9002008BDFFF7F4
:102D30009FFB0020FAE76FF00500F7E7034B036005
:102D4000034B0B6080231360704700BF1409002001
:102D500014070020034B0360034B0B604FF4807398
:102D600013607047740D002074090020134A12F09C
:102D7000070F1FD0D11D21F00701C1F53B630833B8
:102D800013440A460E480260002141601344083B88
:102D900023F007030B48036059601960991A5160CA
:102DA0001360094B1960094B1960094B4FF0004241
:102DB0001A60704740F6B833E4E700BFD40D002036
:102DC000A0190020D00D0020941900209019002097
:102DD0008C190020164B1A461B688342FBD351689E
:102DE00002EB010C844509D0416800EB010C6345FE
:102DF00009D00360904219D01060704740680144C8
:102E000051601046F0E710B40A4C2468A3420BD07E
:102E10005B681944416013681B680360904200D0EE
:102E200010605DF8044B70470460F7E7704700BF1F
:102E3000A0190020D00D002070B50546FFF702FA5A
:102E4000364B1B68A3B1364B1B681D424ED135B1C2
:102E5000083515F0070F02D025F007050835002DBD
:102E600046D0304B1B68AB4251D32F4A146804E064
:102E7000FFF77CFFE7E722461C466368AB4202D2BD
:102E80002368002BF7D1254B1B68A34241D016685D
:102E900008362368136063685B1B102B10D9601918
:102EA00010F0070F08D04FF0500383F31188BFF3E1
:102EB0006F8FBFF34F8FFEE743606560FFF78AFFB8
:102EC000626818490B689B1A0B60184909688B42A5
:102ED00001D216490B60124B1B6813436360002339
:102EE0002360134A13680133136002E0002600E0F8
:102EF0000026FFF741FA16F0070F0CD04FF05003F1
:102F000083F31188BFF36F8FBFF34F8FFEE7002667
:102F1000EFE70026EDE7304670BD00BFD00D002082
:102F20008C19002090190020A0190020941900206D
:102F300098190020002834D038B50446A0F10805BF
:102F400050F8043C174A1268134208D14FF050035E
:102F500083F31188BFF36F8FBFF34F8FFEE750F8F5
:102F6000081C41B14FF0500383F31188BFF36F8FFA
:102F7000BFF34F8FFEE723EA020340F8043CFFF75C
:102F800061F954F8041C084A13680B44136028467E
:102F9000FFF720FF054A136801331360FFF7ECF9D0
:102FA00038BD70478C190020901900209C19002012
:102FB00082B0002301930D4B1B68B3F1FF3F08D093
:102FC0004FF0500383F31188BFF36F8FBFF34F8F20
:102FD000FEE74FF0500383F31188BFF36F8FBFF309
:102FE0004F8F019B002BFCD002B070470C000020DB
:102FF00008480068006880F308884FF0000080F3FC
:10300000148862B661B6BFF34F8FBFF36F8F00DFD6
:1030100000BF000008ED00E0DFF80C00016841F49B
:10302000700101607047000088ED00E04FF0807390
:1030300040F8043C21F0010140F8081C054B40F821
:103040000C3C40F8202C6FF0020340F8243C44383C
:10305000704700BFB12F0008000000000000000012
:10306000074B19680868B0E8F04F80F30988BFF390
:103070006F8F4FF0000080F311887047AFF300802E
:10308000E80000204FF0500383F31188BFF36F8FE7
:10309000BFF34F8F0B4A136801331360012B00D02D
:1030A00070474FF0E023D3F8043D13F0FF0FF7D043
:1030B0004FF0500383F31188BFF36F8FBFF34F8F2F
:1030C000FEE700BF0C000020094B1B6843B94FF01E
:1030D000500383F31188BFF36F8FBFF34F8FFEE769
:1030E000013B034A13600BB983F31188704700BF9B
:1030F0000C000020000000000000000000000000A4
:10310000EFF30980BFF36F8F154B1A681EF0100F95
:1031100008BF20ED108A20E9F04F10602DE909006A
:103120004FF0500080F31188BFF34F8FBFF36F8FC4
:10313000FFF7C4F94FF0000080F3118809BC19684B
:103140000868B0E8F04F1EF0100F08BFB0EC108A0E
:1031500080F30988BFF36F8F704700BFAFF3008023
:10316000E800002008B54FF0500383F31188BFF347
:103170006F8FBFF34F8FFFF773F828B14FF0E02345
:103180004FF08052C3F8042D002383F3118808BD4B
:103190004FF0E022002313619361054B1B68054942
:1031A000A1FB03139B09013B536107231361704784
:1031B00008000020D34D62104FF0E023D3F8002D1B
:1031C0003D4B9A421CD04FF0E023D3F8002D3B4BEF
:1031D0009A421ED030B583B0394B1A78D2B20192E0
:1031E000FF221A701B78DBB28DF803309DF8033094
:1031F00003F05003334A1370334B07221A601BE06D
:103200004FF0500383F31188BFF36F8FBFF34F8FDD
:10321000FEE74FF0500383F31188BFF36F8FBFF3C6
:103220004F8FFEE7284A1368013B13609DF8033077
:103230005B00DBB28DF803309DF8033013F0800F94
:10324000F0D1214B1B68032B08D04FF0500383F3C0
:103250001188BFF36F8FBFF34F8FFEE71B021A4A2F
:10326000136003F4E0631360019BDBB2144A137034
:103270004FF0E024D4F8203D43F47003C4F8203D1F
:10328000D4F8203D43F07043C4F8203DFFF780FFA1
:1032900000250E4B1D60FFF7BFFED4F8343F43F00E
:1032A0004043C4F8343FFFF7A3FEFFF707F9FFF7E9
:1032B0007FFE284603B030BD71C20F4170C20F417E
:1032C00000E400E0A8190020AC1900200C00002048
:1032D000EFF305830F2B0FD9114A9B5CDBB2114A28
:1032E00012789A4208D94FF0500383F31188BFF344
:1032F0006F8FBFF34F8FFEE74FF0E023D3F80C3D05
:1033000003F4E063084A1268934208D94FF050036F
:1033100083F31188BFF36F8FBFF34F8FFEE77047C2
:10332000F0E300E0A8190020AC19002008B50268FD
:10333000034B9A4200D008BDFDF7BEF9FBE700BF82
:10334000002C014072B6FEE700B597B04422002180
:1033500005A800F0A7F800230093019302930393BC
:1033600004934FF40070FDF78DFF30BBFDF77AFF3B
:10337000154AD2F8903023F01803C2F89030142385
:103380000593012307930B9300230C9360220D9266
:103390000F9305A8FDF744FA88B90F230093002185
:1033A00001910291039104916846FDF76FFD40B9C8
:1033B000FDF766FE17B05DF804FBFFF7C3FFFFF7EC
:1033C000C1FFFFF7BFFF00BF0010024008B5FDF7C7
:1033D00064F9FFF7B9FFFCF721FFFDF7FDFFFFF7E9
:1033E00013FCFEF7F7F8FFF721FCFEE7DFF834D017
:1033F000FDF7E8FF0C480D490D4A002302E0D458C0
:10340000C4500433C4188C42F9D30A4A0A4C00232E
:1034100001E013600432A242FBD300F011F8FFF781
:10342000D5FFFEE700000120000000201000002072
:103430007035000810000020B0190020FEE70000E1
:1034400070B50D4D0D4C641BA4100026A64209D189
:103450000B4D0C4C00F02EF8641BA4100026A64265
:1034600005D170BD55F8043B98470136EEE755F895
:10347000043B98470136F2E76035000860350008E4
:1034800060350008643500080A44914200F1FF33BA
:1034900000D1704710B511F8014B03F8014F91426C
:1034A000F9D110BD02440346934200D1704703F89E
:1034B000011BF9E7F8B500BFF8BC08BC9E46704791
:1034C000F8B500BFF8BC08BC9E467047000000007D
:1034D00000000000000000000102030406070809C4
:1034E0000000000001020304A0860100400D03005B
:1034F000801A060000350C0040420F0080841E0038
:1035000000093D0000127A000024F40000366E012C
:103510000048E801006CDC0264656661756C7454F7
:1035200061736B0018350008000000000000000007
:103530000000000000000000000200001800000071
:10354000000000000000000049444C45000000005D
:10355000546D725100000000546D72205376630068
:08356000F90100080000000061
:08356800D10100080000000081
:10357000010000001000000000093D00AAAAAAAA4C
:04000005080033EDCF
:00000001FF
